:100000000C9434000C943E000C943E000C943E0082
:100010000C943E000C943E000C943E000C943E0068
:100020000C943E000C943E000C943E000C943E0058
:100030000C943E000C943E000C943E000C943E0048
:100040000C943E000C943E000C943E000C943E0038
:100050000C943E000C943E000C943E000C943E0028
:100060000C943E000C943E0011241FBECFEFD8E04C
:10007000DEBFCDBF0E9440000C94A1000C94000094
:1000800087B1886387B98AB1887F8AB98BB1876065
:100090008BB940E951E089B190E09C01217030704A
:1000A00080FD18C081FF49C082FF47C088B1877CAE
:1000B000806288B982EE94E0FA013197F1F70197F6
:1000C000D9F7459882EE94E0FA013197F1F701975C
:1000D000D9F7E1CF222389F19C012470307081FD92
:1000E00016C0232B51F188B1877C806188B982EEDC
:1000F00094E0FA013197F1F70197D9F7449882EE2D
:1001000094E0FA013197F1F70197D9F7C4CF232B87
:10011000A1F488B1877C886088B982EE94E0FA0106
:100120003197F1F70197D9F7439882EE94E0FA01FD
:100130003197F1F70197D9F7AECF88B1877C88B9AD
:06014000AACFF894FFCFE6
:00000001FF
